{
  "address": "0xCf7Ed3AccA5a467e9e704C703E8D87F634fB0Fc9",
  "abi": [
    {
      "inputs": [
        {
          "internalType": "address",
          "name": "vrfCoordinatorV2",
          "type": "address"
        },
        {
          "internalType": "uint64",
          "name": "subscriptionId",
          "type": "uint64"
        },
        {
          "internalType": "bytes32",
          "name": "gasLane",
          "type": "bytes32"
        },
        {
          "internalType": "uint256",
          "name": "interval",
          "type": "uint256"
        },
        {
          "internalType": "uint256",
          "name": "entranceFee",
          "type": "uint256"
        },
        {
          "internalType": "uint32",
          "name": "callbackGasLimit",
          "type": "uint32"
        }
      ],
      "stateMutability": "nonpayable",
      "type": "constructor"
    },
    {
      "inputs": [
        {
          "internalType": "address",
          "name": "have",
          "type": "address"
        },
        {
          "internalType": "address",
          "name": "want",
          "type": "address"
        }
      ],
      "name": "OnlyCoordinatorCanFulfill",
      "type": "error"
    },
    {
      "inputs": [],
      "name": "Raffle__RaffleNotOpen",
      "type": "error"
    },
    {
      "inputs": [],
      "name": "Raffle__SendMoreToEnterRaffle",
      "type": "error"
    },
    {
      "inputs": [],
      "name": "Raffle__TransferFailed",
      "type": "error"
    },
    {
      "inputs": [
        {
          "internalType": "uint256",
          "name": "currentBalance",
          "type": "uint256"
        },
        {
          "internalType": "uint256",
          "name": "numPlayers",
          "type": "uint256"
        },
        {
          "internalType": "uint256",
          "name": "raffleState",
          "type": "uint256"
        }
      ],
      "name": "Raffle__UpkeepNotNeeded",
      "type": "error"
    },
    {
      "anonymous": false,
      "inputs": [
        {
          "indexed": true,
          "internalType": "address",
          "name": "player",
          "type": "address"
        }
      ],
      "name": "RaffleEnter",
      "type": "event"
    },
    {
      "anonymous": false,
      "inputs": [
        {
          "indexed": true,
          "internalType": "uint256",
          "name": "requestId",
          "type": "uint256"
        }
      ],
      "name": "RequestedRaffleWinner",
      "type": "event"
    },
    {
      "anonymous": false,
      "inputs": [
        {
          "indexed": true,
          "internalType": "address",
          "name": "winner",
          "type": "address"
        }
      ],
      "name": "WinnerPicked",
      "type": "event"
    },
    {
      "inputs": [
        {
          "internalType": "bytes",
          "name": "",
          "type": "bytes"
        }
      ],
      "name": "checkUpkeep",
      "outputs": [
        {
          "internalType": "bool",
          "name": "upkeepNeeded",
          "type": "bool"
        },
        {
          "internalType": "bytes",
          "name": "",
          "type": "bytes"
        }
      ],
      "stateMutability": "view",
      "type": "function"
    },
    {
      "inputs": [],
      "name": "enterRaffle",
      "outputs": [],
      "stateMutability": "payable",
      "type": "function"
    },
    {
      "inputs": [],
      "name": "getEntranceFee",
      "outputs": [
        {
          "internalType": "uint256",
          "name": "",
          "type": "uint256"
        }
      ],
      "stateMutability": "view",
      "type": "function"
    },
    {
      "inputs": [],
      "name": "getInterval",
      "outputs": [
        {
          "internalType": "uint256",
          "name": "",
          "type": "uint256"
        }
      ],
      "stateMutability": "view",
      "type": "function"
    },
    {
      "inputs": [],
      "name": "getLastTimeStamp",
      "outputs": [
        {
          "internalType": "uint256",
          "name": "",
          "type": "uint256"
        }
      ],
      "stateMutability": "view",
      "type": "function"
    },
    {
      "inputs": [],
      "name": "getNumWords",
      "outputs": [
        {
          "internalType": "uint256",
          "name": "",
          "type": "uint256"
        }
      ],
      "stateMutability": "pure",
      "type": "function"
    },
    {
      "inputs": [],
      "name": "getNumberOfPlayers",
      "outputs": [
        {
          "internalType": "uint256",
          "name": "",
          "type": "uint256"
        }
      ],
      "stateMutability": "view",
      "type": "function"
    },
    {
      "inputs": [
        {
          "internalType": "uint256",
          "name": "index",
          "type": "uint256"
        }
      ],
      "name": "getPlayer",
      "outputs": [
        {
          "internalType": "address",
          "name": "",
          "type": "address"
        }
      ],
      "stateMutability": "view",
      "type": "function"
    },
    {
      "inputs": [],
      "name": "getRaffleState",
      "outputs": [
        {
          "internalType": "enum Raffle.RaffleState",
          "name": "",
          "type": "uint8"
        }
      ],
      "stateMutability": "view",
      "type": "function"
    },
    {
      "inputs": [],
      "name": "getRecentWinner",
      "outputs": [
        {
          "internalType": "address",
          "name": "",
          "type": "address"
        }
      ],
      "stateMutability": "view",
      "type": "function"
    },
    {
      "inputs": [],
      "name": "getRequestConfirmations",
      "outputs": [
        {
          "internalType": "uint256",
          "name": "",
          "type": "uint256"
        }
      ],
      "stateMutability": "pure",
      "type": "function"
    },
    {
      "inputs": [
        {
          "internalType": "bytes",
          "name": "",
          "type": "bytes"
        }
      ],
      "name": "performUpkeep",
      "outputs": [],
      "stateMutability": "nonpayable",
      "type": "function"
    },
    {
      "inputs": [
        {
          "internalType": "uint256",
          "name": "requestId",
          "type": "uint256"
        },
        {
          "internalType": "uint256[]",
          "name": "randomWords",
          "type": "uint256[]"
        }
      ],
      "name": "rawFulfillRandomWords",
      "outputs": [],
      "stateMutability": "nonpayable",
      "type": "function"
    }
  ],
  "transactionHash": "0x41c11eed9b06c35b774e96bd82653cda9c56f77877577b65e2b99954c0469197",
  "args": [
    "0x5FbDB2315678afecb367f032d93F642f64180aa3",
    "1",
    "0xd89b2bf150e3b9e13446986e571fb9cab24b13cea0a43ea20a6049a85cc807cc",
    "30",
    "10000000000000000",
    "500000"
  ],
  "numDeployments": 1,
  "solcInputHash": "722c8f0d65dfc9c8d2614ec8b695ea69",
  "bytecode": "0x6101606040523480156200001257600080fd5b506040516200185638038062001856833981810160405281019062000038919062000294565b858073ffffffffffffffffffffffffffffffffffffffff1660808173ffffffffffffffffffffffffffffffffffffffff1681525050508160a081815250508573ffffffffffffffffffffffffffffffffffffffff1660c08173ffffffffffffffffffffffffffffffffffffffff16815250508360e081815250508467ffffffffffffffff166101008167ffffffffffffffff16815250508063ffffffff166101208163ffffffff16815250506000600260146101000a81548160ff021916908360018111156200010d576200010c62000330565b5b0217905550426001819055508261014081815250505050505050506200035f565b600080fd5b600073ffffffffffffffffffffffffffffffffffffffff82169050919050565b6000620001608262000133565b9050919050565b620001728162000153565b81146200017e57600080fd5b50565b600081519050620001928162000167565b92915050565b600067ffffffffffffffff82169050919050565b620001b78162000198565b8114620001c357600080fd5b50565b600081519050620001d781620001ac565b92915050565b6000819050919050565b620001f281620001dd565b8114620001fe57600080fd5b50565b6000815190506200021281620001e7565b92915050565b6000819050919050565b6200022d8162000218565b81146200023957600080fd5b50565b6000815190506200024d8162000222565b92915050565b600063ffffffff82169050919050565b6200026e8162000253565b81146200027a57600080fd5b50565b6000815190506200028e8162000263565b92915050565b60008060008060008060c08789031215620002b457620002b36200012e565b5b6000620002c489828a0162000181565b9650506020620002d789828a01620001c6565b9550506040620002ea89828a0162000201565b9450506060620002fd89828a016200023c565b93505060806200031089828a016200023c565b92505060a06200032389828a016200027d565b9150509295509295509295565b7f4e487b7100000000000000000000000000000000000000000000000000000000600052602160045260246000fd5b60805160a05160c05160e051610100516101205161014051611487620003cf600039600081816107ed01526108960152600061069c01526000610679015260006106580152600061061c0152600081816102fa01526103f7015260008181610337015261038b01526114876000f3fe6080604052600436106100c25760003560e01c806353a2c19a1161007f57806391ad27b41161005957806391ad27b414610238578063c1c244e814610263578063e55ae4e81461028e578063fd6673f5146102cb576100c2565b806353a2c19a146101a45780635f1b0fd8146101cf5780636e04ff0d146101fa576100c2565b806309bc33a7146100c7578063115cbaf5146100f25780631fe543e31461011d5780632cfcc539146101465780634585e33b14610150578063473f1ddc14610179575b600080fd5b3480156100d357600080fd5b506100dc6102f6565b6040516100e99190610c08565b60405180910390f35b3480156100fe57600080fd5b5061010761031e565b6040516101149190610c9a565b60405180910390f35b34801561012957600080fd5b50610144600480360381019061013f9190610e4e565b610335565b005b61014e6103f5565b005b34801561015c57600080fd5b5061017760048036038101906101729190610f05565b610564565b005b34801561018557600080fd5b5061018e610764565b60405161019b9190610f93565b60405180910390f35b3480156101b057600080fd5b506101b961078e565b6040516101c69190610c08565b60405180910390f35b3480156101db57600080fd5b506101e461079d565b6040516101f19190610c08565b60405180910390f35b34801561020657600080fd5b50610221600480360381019061021c9190611063565b6107aa565b60405161022f92919061114f565b60405180910390f35b34801561024457600080fd5b5061024d610892565b60405161025a9190610c08565b60405180910390f35b34801561026f57600080fd5b506102786108ba565b6040516102859190610c08565b60405180910390f35b34801561029a57600080fd5b506102b560048036038101906102b0919061117f565b6108c4565b6040516102c29190610f93565b60405180910390f35b3480156102d757600080fd5b506102e061090b565b6040516102ed9190610c08565b60405180910390f35b60007f0000000000000000000000000000000000000000000000000000000000000000905090565b6000600260149054906101000a900460ff16905090565b7f000000000000000000000000000000000000000000000000000000000000000073ffffffffffffffffffffffffffffffffffffffff163373ffffffffffffffffffffffffffffffffffffffff16146103e757337f00000000000000000000000000000000000000000000000000000000000000006040517f1cf993f40000000000000000000000000000000000000000000000000000000081526004016103de9291906111ac565b60405180910390fd5b6103f18282610917565b5050565b7f000000000000000000000000000000000000000000000000000000000000000034101561044f576040517f3038c00a00000000000000000000000000000000000000000000000000000000815260040160405180910390fd5b6000600181111561046357610462610c23565b5b600260149054906101000a900460ff16600181111561048557610484610c23565b5b146104bc576040517fd24a271400000000000000000000000000000000000000000000000000000000815260040160405180910390fd5b6000339080600181540180825580915050600190039060005260206000200160009091909190916101000a81548173ffffffffffffffffffffffffffffffffffffffff021916908373ffffffffffffffffffffffffffffffffffffffff1602179055503373ffffffffffffffffffffffffffffffffffffffff167f0805e1d667bddb8a95f0f09880cf94f403fb596ce79928d9f29b74203ba284d460405160405180910390a2565b600061057e604051806020016040528060008152506107aa565b509050806105ed5747600080549050600260149054906101000a900460ff1660018111156105af576105ae610c23565b5b6040517f584327aa0000000000000000000000000000000000000000000000000000000081526004016105e4939291906111d5565b60405180910390fd5b6001600260146101000a81548160ff0219169083600181111561061357610612610c23565b5b021790555060007f000000000000000000000000000000000000000000000000000000000000000073ffffffffffffffffffffffffffffffffffffffff16635d3b1d307f00000000000000000000000000000000000000000000000000000000000000007f000000000000000000000000000000000000000000000000000000000000000060037f000000000000000000000000000000000000000000000000000000000000000060016040518663ffffffff1660e01b81526004016106dd959493929190611284565b602060405180830381600087803b1580156106f757600080fd5b505af115801561070b573d6000803e3d6000fd5b505050506040513d601f19601f8201168201806040525081019061072f91906112ec565b9050807fcd6e45c8998311cab7e9d4385596cac867e20a0587194b954fa3a731c93ce78b60405160405180910390a250505050565b6000600260009054906101000a900473ffffffffffffffffffffffffffffffffffffffff16905090565b6000600163ffffffff16905090565b6000600361ffff16905090565b600060606000600260149054906101000a900460ff1660018111156107d2576107d1610c23565b5b600060018111156107e6576107e5610c23565b5b14905060007f00000000000000000000000000000000000000000000000000000000000000006001544261081a9190611348565b1190506000806000805490501190506000804711905082801561083a5750835b80156108435750805b801561084c5750815b9550856040518060400160405280600381526020017f30783000000000000000000000000000000000000000000000000000000000008152509550955050505050915091565b60007f0000000000000000000000000000000000000000000000000000000000000000905090565b6000600154905090565b60008082815481106108d9576108d861137c565b5b9060005260206000200160009054906101000a900473ffffffffffffffffffffffffffffffffffffffff169050919050565b60008080549050905090565b60008080549050826000815181106109325761093161137c565b5b602002602001015161094491906113da565b9050600080828154811061095b5761095a61137c565b5b9060005260206000200160009054906101000a900473ffffffffffffffffffffffffffffffffffffffff16905080600260006101000a81548173ffffffffffffffffffffffffffffffffffffffff021916908373ffffffffffffffffffffffffffffffffffffffff160217905550600067ffffffffffffffff8111156109e4576109e3610d0b565b5b604051908082528060200260200182016040528015610a125781602001602082028036833780820191505090505b5060009080519060200190610a28929190610b48565b506000600260146101000a81548160ff02191690836001811115610a4f57610a4e610c23565b5b02179055504260018190555060008173ffffffffffffffffffffffffffffffffffffffff1647604051610a819061143c565b60006040518083038185875af1925050503d8060008114610abe576040519150601f19603f3d011682016040523d82523d6000602084013e610ac3565b606091505b5050905080610afe576040517fa1d04b3900000000000000000000000000000000000000000000000000000000815260040160405180910390fd5b8173ffffffffffffffffffffffffffffffffffffffff167f5b690ec4a06fe979403046eaeea5b3ce38524683c3001f662c8b5a829632f7df60405160405180910390a25050505050565b828054828255906000526020600020908101928215610bc1579160200282015b82811115610bc05782518260006101000a81548173ffffffffffffffffffffffffffffffffffffffff021916908373ffffffffffffffffffffffffffffffffffffffff16021790555091602001919060010190610b68565b5b509050610bce9190610bd2565b5090565b5b80821115610beb576000816000905550600101610bd3565b5090565b6000819050919050565b610c0281610bef565b82525050565b6000602082019050610c1d6000830184610bf9565b92915050565b7f4e487b7100000000000000000000000000000000000000000000000000000000600052602160045260246000fd5b60028110610c6357610c62610c23565b5b50565b6000819050610c7482610c52565b919050565b6000610c8482610c66565b9050919050565b610c9481610c79565b82525050565b6000602082019050610caf6000830184610c8b565b92915050565b6000604051905090565b600080fd5b600080fd5b610cd281610bef565b8114610cdd57600080fd5b50565b600081359050610cef81610cc9565b92915050565b600080fd5b6000601f19601f8301169050919050565b7f4e487b7100000000000000000000000000000000000000000000000000000000600052604160045260246000fd5b610d4382610cfa565b810181811067ffffffffffffffff82111715610d6257610d61610d0b565b5b80604052505050565b6000610d75610cb5565b9050610d818282610d3a565b919050565b600067ffffffffffffffff821115610da157610da0610d0b565b5b602082029050602081019050919050565b600080fd5b6000610dca610dc584610d86565b610d6b565b90508083825260208201905060208402830185811115610ded57610dec610db2565b5b835b81811015610e165780610e028882610ce0565b845260208401935050602081019050610def565b5050509392505050565b600082601f830112610e3557610e34610cf5565b5b8135610e45848260208601610db7565b91505092915050565b60008060408385031215610e6557610e64610cbf565b5b6000610e7385828601610ce0565b925050602083013567ffffffffffffffff811115610e9457610e93610cc4565b5b610ea085828601610e20565b9150509250929050565b600080fd5b60008083601f840112610ec557610ec4610cf5565b5b8235905067ffffffffffffffff811115610ee257610ee1610eaa565b5b602083019150836001820283011115610efe57610efd610db2565b5b9250929050565b60008060208385031215610f1c57610f1b610cbf565b5b600083013567ffffffffffffffff811115610f3a57610f39610cc4565b5b610f4685828601610eaf565b92509250509250929050565b600073ffffffffffffffffffffffffffffffffffffffff82169050919050565b6000610f7d82610f52565b9050919050565b610f8d81610f72565b82525050565b6000602082019050610fa86000830184610f84565b92915050565b600080fd5b600067ffffffffffffffff821115610fce57610fcd610d0b565b5b610fd782610cfa565b9050602081019050919050565b82818337600083830152505050565b600061100661100184610fb3565b610d6b565b90508281526020810184848401111561102257611021610fae565b5b61102d848285610fe4565b509392505050565b600082601f83011261104a57611049610cf5565b5b813561105a848260208601610ff3565b91505092915050565b60006020828403121561107957611078610cbf565b5b600082013567ffffffffffffffff81111561109757611096610cc4565b5b6110a384828501611035565b91505092915050565b60008115159050919050565b6110c1816110ac565b82525050565b600081519050919050565b600082825260208201905092915050565b60005b838110156111015780820151818401526020810190506110e6565b83811115611110576000848401525b50505050565b6000611121826110c7565b61112b81856110d2565b935061113b8185602086016110e3565b61114481610cfa565b840191505092915050565b600060408201905061116460008301856110b8565b81810360208301526111768184611116565b90509392505050565b60006020828403121561119557611194610cbf565b5b60006111a384828501610ce0565b91505092915050565b60006040820190506111c16000830185610f84565b6111ce6020830184610f84565b9392505050565b60006060820190506111ea6000830186610bf9565b6111f76020830185610bf9565b6112046040830184610bf9565b949350505050565b6000819050919050565b61121f8161120c565b82525050565b600067ffffffffffffffff82169050919050565b61124281611225565b82525050565b600061ffff82169050919050565b61125f81611248565b82525050565b600063ffffffff82169050919050565b61127e81611265565b82525050565b600060a0820190506112996000830188611216565b6112a66020830187611239565b6112b36040830186611256565b6112c06060830185611275565b6112cd6080830184611275565b9695505050505050565b6000815190506112e681610cc9565b92915050565b60006020828403121561130257611301610cbf565b5b6000611310848285016112d7565b91505092915050565b7f4e487b7100000000000000000000000000000000000000000000000000000000600052601160045260246000fd5b600061135382610bef565b915061135e83610bef565b92508282101561137157611370611319565b5b828203905092915050565b7f4e487b7100000000000000000000000000000000000000000000000000000000600052603260045260246000fd5b7f4e487b7100000000000000000000000000000000000000000000000000000000600052601260045260246000fd5b60006113e582610bef565b91506113f083610bef565b925082611400576113ff6113ab565b5b828206905092915050565b600081905092915050565b50565b600061142660008361140b565b915061143182611416565b600082019050919050565b600061144782611419565b915081905091905056fea26469706673582212204507a7fa01a517c3d9a06422dd265620b1e0052460de65f667fbca6b7d1bd0ee64736f6c63430008090033",
  "devdoc": {
    "kind": "dev",
    "methods": {
      "checkUpkeep(bytes)": {
        "details": "This is the function that the Chainlink Keeper nodes call they look for the `upkeepNeeded` to return true. the following should be true in order to return true: 1. Our time interval should have passed 2. The lottery should have at least 1 player, and have some ETH 3. Our subscription is funded with LINK 4. The lottery should be in an \"open\" state"
      }
    },
    "version": 1
  },
  "userdoc": {
    "kind": "user",
    "methods": {},
    "version": 1
  },
  "storageLayout": {
    "storage": [
      {
        "astId": 1161,
        "contract": "contracts/Raffle.sol:Raffle",
        "label": "s_players",
        "offset": 0,
        "slot": "0",
        "type": "t_array(t_address_payable)dyn_storage"
      },
      {
        "astId": 1180,
        "contract": "contracts/Raffle.sol:Raffle",
        "label": "s_lastTimeStamp",
        "offset": 0,
        "slot": "1",
        "type": "t_uint256"
      },
      {
        "astId": 1182,
        "contract": "contracts/Raffle.sol:Raffle",
        "label": "s_recentWinner",
        "offset": 0,
        "slot": "2",
        "type": "t_address"
      },
      {
        "astId": 1185,
        "contract": "contracts/Raffle.sol:Raffle",
        "label": "s_raffleState",
        "offset": 20,
        "slot": "2",
        "type": "t_enum(RaffleState)1156"
      }
    ],
    "types": {
      "t_address": {
        "encoding": "inplace",
        "label": "address",
        "numberOfBytes": "20"
      },
      "t_address_payable": {
        "encoding": "inplace",
        "label": "address payable",
        "numberOfBytes": "20"
      },
      "t_array(t_address_payable)dyn_storage": {
        "base": "t_address_payable",
        "encoding": "dynamic_array",
        "label": "address payable[]",
        "numberOfBytes": "32"
      },
      "t_enum(RaffleState)1156": {
        "encoding": "inplace",
        "label": "enum Raffle.RaffleState",
        "numberOfBytes": "1"
      },
      "t_uint256": {
        "encoding": "inplace",
        "label": "uint256",
        "numberOfBytes": "32"
      }
    }
  }
}